:060000000A128A110F290B
:10000800F000030EF1000B190E20710E8300F00EA4
:10001800700E0900031383123D3081000B11A00AF2
:1000280020080A3C031383122528A001870A071A0F
:1000380087010708002188000A30070203192620D3
:10004800080008008701A20A22080021850006305E
:0E00580022020319302008008501A2010800D1
:100200008A010A1482073F3406345B344F34663463
:100210006D347D3407347F346F343F340800162149
:1002200025212C2139210313831215290317831645
:10023000880189010313831685018801870103134F
:1002400083128801870185010800031383160F17A5
:100250008F160F120F1408000313831681128111D9
:10026000011581140114031383123D3081000B1119
:0A02700008008B178B160B11080015
:04400E00C430FF3F7C
:00000001FF
